{
  "contractName": "Weibo",
  "abi": [
    {
      "constant": true,
      "inputs": [],
      "name": "weiboCount",
      "outputs": [
        {
          "name": "",
          "type": "uint256"
        }
      ],
      "payable": false,
      "stateMutability": "view",
      "type": "function"
    },
    {
      "constant": false,
      "inputs": [
        {
          "name": "content",
          "type": "string"
        },
        {
          "name": "tags",
          "type": "string"
        },
        {
          "name": "likePrice",
          "type": "uint256"
        }
      ],
      "name": "publishNewWeibo",
      "outputs": [],
      "payable": true,
      "stateMutability": "payable",
      "type": "function"
    },
    {
      "constant": true,
      "inputs": [],
      "name": "getWeiboCount",
      "outputs": [
        {
          "name": "",
          "type": "uint256"
        }
      ],
      "payable": false,
      "stateMutability": "view",
      "type": "function"
    },
    {
      "constant": true,
      "inputs": [
        {
          "name": "i",
          "type": "uint256"
        }
      ],
      "name": "getWeiboContent",
      "outputs": [
        {
          "name": "",
          "type": "string"
        }
      ],
      "payable": false,
      "stateMutability": "view",
      "type": "function"
    },
    {
      "constant": true,
      "inputs": [
        {
          "name": "i",
          "type": "uint256"
        }
      ],
      "name": "getWeiboTags",
      "outputs": [
        {
          "name": "",
          "type": "string"
        }
      ],
      "payable": false,
      "stateMutability": "view",
      "type": "function"
    },
    {
      "constant": true,
      "inputs": [
        {
          "name": "i",
          "type": "uint256"
        }
      ],
      "name": "getWeiboAuthor",
      "outputs": [
        {
          "name": "",
          "type": "address"
        }
      ],
      "payable": false,
      "stateMutability": "view",
      "type": "function"
    },
    {
      "constant": true,
      "inputs": [
        {
          "name": "i",
          "type": "uint256"
        }
      ],
      "name": "getWeiboSourceIndex",
      "outputs": [
        {
          "name": "",
          "type": "uint256"
        }
      ],
      "payable": false,
      "stateMutability": "view",
      "type": "function"
    },
    {
      "constant": true,
      "inputs": [
        {
          "name": "i",
          "type": "uint256"
        }
      ],
      "name": "getWeiboIndex",
      "outputs": [
        {
          "name": "",
          "type": "uint256"
        }
      ],
      "payable": false,
      "stateMutability": "view",
      "type": "function"
    },
    {
      "constant": true,
      "inputs": [
        {
          "name": "i",
          "type": "uint256"
        }
      ],
      "name": "getWeiboLikesNumber",
      "outputs": [
        {
          "name": "",
          "type": "uint256"
        }
      ],
      "payable": false,
      "stateMutability": "view",
      "type": "function"
    },
    {
      "constant": true,
      "inputs": [
        {
          "name": "i",
          "type": "uint256"
        }
      ],
      "name": "getWeiboCitedNumber",
      "outputs": [
        {
          "name": "",
          "type": "uint256"
        }
      ],
      "payable": false,
      "stateMutability": "view",
      "type": "function"
    },
    {
      "constant": true,
      "inputs": [
        {
          "name": "i",
          "type": "uint256"
        }
      ],
      "name": "getWeiboCommentsNumber",
      "outputs": [
        {
          "name": "",
          "type": "uint256"
        }
      ],
      "payable": false,
      "stateMutability": "view",
      "type": "function"
    },
    {
      "constant": true,
      "inputs": [
        {
          "name": "weiboIndex",
          "type": "uint256"
        },
        {
          "name": "CommentIndex",
          "type": "uint256"
        }
      ],
      "name": "getCommentAuthor",
      "outputs": [
        {
          "name": "",
          "type": "address"
        }
      ],
      "payable": false,
      "stateMutability": "view",
      "type": "function"
    },
    {
      "constant": true,
      "inputs": [
        {
          "name": "weiboIndex",
          "type": "uint256"
        },
        {
          "name": "CommentIndex",
          "type": "uint256"
        }
      ],
      "name": "getCommentContent",
      "outputs": [
        {
          "name": "",
          "type": "string"
        }
      ],
      "payable": false,
      "stateMutability": "view",
      "type": "function"
    },
    {
      "constant": false,
      "inputs": [
        {
          "name": "weiboIndex",
          "type": "uint256"
        },
        {
          "name": "content",
          "type": "string"
        }
      ],
      "name": "publishNewComment",
      "outputs": [],
      "payable": true,
      "stateMutability": "payable",
      "type": "function"
    },
    {
      "constant": false,
      "inputs": [
        {
          "name": "i",
          "type": "uint256"
        }
      ],
      "name": "giveALike",
      "outputs": [],
      "payable": true,
      "stateMutability": "payable",
      "type": "function"
    },
    {
      "constant": false,
      "inputs": [
        {
          "name": "i",
          "type": "uint256"
        }
      ],
      "name": "citeAWeibo",
      "outputs": [],
      "payable": true,
      "stateMutability": "payable",
      "type": "function"
    }
  ],
  "bytecode": "0x6080604052600060015534801561001557600080fd5b50611af3806100256000396000f3fe6080604052600436106100f35760003560e01c8063a850a3e41161008a578063bfde6a5f11610059578063bfde6a5f14610738578063dd838f1414610787578063df137429146107b2578063f078c0801461082d576100f3565b8063a850a3e414610502578063b6305d99146105c0578063bab7b32714610645578063bebb1cb51461070a576100f3565b80633ca59fd6116100c65780633ca59fd614610278578063866807fe146102c757806388f422101461037b57806390b4c461146104d7576100f3565b80631f904c0f146100f857806321a3b8021461014757806330121fd4146101fb57806339cc3bab1461024a575b600080fd5b34801561010457600080fd5b506101316004803603602081101561011b57600080fd5b810190808035906020019092919050505061087c565b6040518082815260200191505060405180910390f35b34801561015357600080fd5b506101806004803603602081101561016a57600080fd5b81019080803590602001909291905050506108a4565b6040518080602001828103825283818151815260200191508051906020019080838360005b838110156101c05780820151818401526020810190506101a5565b50505050905090810190601f1680156101ed5780820380516001836020036101000a031916815260200191505b509250505060405180910390f35b34801561020757600080fd5b506102346004803603602081101561021e57600080fd5b8101908080359060200190929190505050610964565b6040518082815260200191505060405180910390f35b6102766004803603602081101561026057600080fd5b810190808035906020019092919050505061098f565b005b34801561028457600080fd5b506102b16004803603602081101561029b57600080fd5b8101908080359060200190929190505050610e94565b6040518082815260200191505060405180910390f35b3480156102d357600080fd5b50610300600480360360208110156102ea57600080fd5b8101908080359060200190929190505050610ebc565b6040518080602001828103825283818151815260200191508051906020019080838360005b83811015610340578082015181840152602081019050610325565b50505050905090810190601f16801561036d5780820380516001836020036101000a031916815260200191505b509250505060405180910390f35b6104d56004803603606081101561039157600080fd5b81019080803590602001906401000000008111156103ae57600080fd5b8201836020820111156103c057600080fd5b803590602001918460018302840111640100000000831117156103e257600080fd5b91908080601f016020809104026020016040519081016040528093929190818152602001838380828437600081840152601f19601f8201169050808301925050505050505091929192908035906020019064010000000081111561044557600080fd5b82018360208201111561045757600080fd5b8035906020019184600183028401116401000000008311171561047957600080fd5b91908080601f016020809104026020016040519081016040528093929190818152602001838380828437600081840152601f19601f82011690508083019250505050505050919291929080359060200190929190505050610f7c565b005b3480156104e357600080fd5b506104ec611253565b6040518082815260200191505060405180910390f35b34801561050e57600080fd5b506105456004803603604081101561052557600080fd5b81019080803590602001909291908035906020019092919050505061125d565b6040518080602001828103825283818151815260200191508051906020019080838360005b8381101561058557808201518184015260208101905061056a565b50505050905090810190601f1680156105b25780820380516001836020036101000a031916815260200191505b509250505060405180910390f35b3480156105cc57600080fd5b50610603600480360360408110156105e357600080fd5b810190808035906020019092919080359060200190929190505050611336565b604051808273ffffffffffffffffffffffffffffffffffffffff1673ffffffffffffffffffffffffffffffffffffffff16815260200191505060405180910390f35b6107086004803603604081101561065b57600080fd5b81019080803590602001909291908035906020019064010000000081111561068257600080fd5b82018360208201111561069457600080fd5b803590602001918460018302840111640100000000831117156106b657600080fd5b91908080601f016020809104026020016040519081016040528093929190818152602001838380828437600081840152601f19601f820116905080830192505050505050509192919290505050611397565b005b6107366004803603602081101561072057600080fd5b8101908080359060200190929190505050611577565b005b34801561074457600080fd5b506107716004803603602081101561075b57600080fd5b81019080803590602001909291905050506116ce565b6040518082815260200191505060405180910390f35b34801561079357600080fd5b5061079c6116f9565b6040518082815260200191505060405180910390f35b3480156107be57600080fd5b506107eb600480360360208110156107d557600080fd5b81019080803590602001909291905050506116ff565b604051808273ffffffffffffffffffffffffffffffffffffffff1673ffffffffffffffffffffffffffffffffffffffff16815260200191505060405180910390f35b34801561083957600080fd5b506108666004803603602081101561085057600080fd5b8101908080359060200190929190505050611747565b6040518082815260200191505060405180910390f35b60006002828154811061088b57fe5b90600052602060002090600c0201600101549050919050565b6060600282815481106108b357fe5b90600052602060002090600c02016003018054600181600116156101000203166002900480601f0160208091040260200160405190810160405280929190818152602001828054600181600116156101000203166002900480156109585780601f1061092d57610100808354040283529160200191610958565b820191906000526020600020905b81548152906001019060200180831161093b57829003601f168201915b50505050509050919050565b60006002828154811061097357fe5b90600052602060002090600c0201600701600001549050919050565b6002818154811061099c57fe5b90600052602060002090600c020160020160009054906101000a900473ffffffffffffffffffffffffffffffffffffffff1673ffffffffffffffffffffffffffffffffffffffff163373ffffffffffffffffffffffffffffffffffffffff161415610a0657600080fd5b610a0e611772565b6040518060400160405280600081526020016175308152509050606080610a3361178c565b60405180608001604052806000815260200160015481526020018481526020018381525090506060600260405180610100016040528060018901815260200160015481526020013373ffffffffffffffffffffffffffffffffffffffff16815260200160028981548110610aa357fe5b90600052602060002090600c02016003018054600181600116156101000203166002900480601f016020809104026020016040519081016040528092919081815260200182805460018160011615610100020316600290048015610b485780601f10610b1d57610100808354040283529160200191610b48565b820191906000526020600020905b815481529060010190602001808311610b2b57829003601f168201915b5050505050815260200160028981548110610b5f57fe5b90600052602060002090600c02016004018054600181600116156101000203166002900480601f016020809104026020016040519081016040528092919081815260200182805460018160011615610100020316600290048015610c045780601f10610bd957610100808354040283529160200191610c04565b820191906000526020600020905b815481529060010190602001808311610be757829003601f168201915b50505050508152602001878152602001848152602001838152509080600181540180825580915050906001820390600052602060002090600c020160009091929091909150600082015181600001556020820151816001015560408201518160020160006101000a81548173ffffffffffffffffffffffffffffffffffffffff021916908373ffffffffffffffffffffffffffffffffffffffff1602179055506060820151816003019080519060200190610cc09291906117b4565b506080820151816004019080519060200190610cdd9291906117b4565b5060a0820151816005016000820151816000015560208201518160010155505060c08201518160070160008201518160000155602082015181600101556040820151816002019080519060200190610d36929190611834565b506060820151816003019080519060200190610d539291906118be565b50505060e082015181600b019080519060200190610d7292919061191e565b5050505060028681548110610d8357fe5b90600052602060002090600c0201600b0160015490806001815401808255809150509060018203906000526020600020016000909192909190915055506000803373ffffffffffffffffffffffffffffffffffffffff1673ffffffffffffffffffffffffffffffffffffffff16815260200190815260200160002060010160015490806001815401808255809150509060018203906000526020600020016000909192909190915055504173ffffffffffffffffffffffffffffffffffffffff166108fc655af3107a40009081150290604051600060405180830381858888f19350505050158015610e79573d6000803e3d6000fd5b50600160008154809291906001019190505550505050505050565b600060028281548110610ea357fe5b90600052602060002090600c0201600001549050919050565b606060028281548110610ecb57fe5b90600052602060002090600c02016004018054600181600116156101000203166002900480601f016020809104026020016040519081016040528092919081815260200182805460018160011615610100020316600290048015610f705780601f10610f4557610100808354040283529160200191610f70565b820191906000526020600020905b815481529060010190602001808311610f5357829003601f168201915b50505050509050919050565b610f84611772565b604051806040016040528060008152602001838152509050606080610fa761178c565b6040518060800160405280600081526020016001548152602001848152602001838152509050606060026040518061010001604052806000815260200160015481526020013373ffffffffffffffffffffffffffffffffffffffff1681526020018981526020018a8152602001878152602001848152602001838152509080600181540180825580915050906001820390600052602060002090600c020160009091929091909150600082015181600001556020820151816001015560408201518160020160006101000a81548173ffffffffffffffffffffffffffffffffffffffff021916908373ffffffffffffffffffffffffffffffffffffffff16021790555060608201518160030190805190602001906110c69291906117b4565b5060808201518160040190805190602001906110e39291906117b4565b5060a0820151816005016000820151816000015560208201518160010155505060c0820151816007016000820151816000015560208201518160010155604082015181600201908051906020019061113c929190611834565b5060608201518160030190805190602001906111599291906118be565b50505060e082015181600b01908051906020019061117892919061191e565b505050506000803373ffffffffffffffffffffffffffffffffffffffff1673ffffffffffffffffffffffffffffffffffffffff16815260200190815260200160002060010160015490806001815401808255809150509060018203906000526020600020016000909192909190915055506001600081548092919060010191905055504173ffffffffffffffffffffffffffffffffffffffff166108fc66038d7ea4c680009081150290604051600060405180830381858888f19350505050158015611248573d6000803e3d6000fd5b505050505050505050565b6000600154905090565b60606002838154811061126c57fe5b90600052602060002090600c0201600701600301828154811061128b57fe5b906000526020600020018054600181600116156101000203166002900480601f0160208091040260200160405190810160405280929190818152602001828054600181600116156101000203166002900480156113295780601f106112fe57610100808354040283529160200191611329565b820191906000526020600020905b81548152906001019060200180831161130c57829003601f168201915b5050505050905092915050565b60006002838154811061134557fe5b90600052602060002090600c0201600701600201828154811061136457fe5b9060005260206000200160009054906101000a900473ffffffffffffffffffffffffffffffffffffffff16905092915050565b600282815481106113a457fe5b90600052602060002090600c02016007016002013390806001815401808255809150509060018203906000526020600020016000909192909190916101000a81548173ffffffffffffffffffffffffffffffffffffffff021916908373ffffffffffffffffffffffffffffffffffffffff160217905550506002828154811061142957fe5b90600052602060002090600c020160070160030181908060018154018082558091505090600182039060005260206000200160009091929091909150908051906020019061147892919061196b565b50506002828154811061148757fe5b90600052602060002090600c0201600701600001600081548092919060010191905055504173ffffffffffffffffffffffffffffffffffffffff166108fc652d79883d20009081150290604051600060405180830381858888f193505050501580156114f7573d6000803e3d6000fd5b506002828154811061150557fe5b90600052602060002090600c0201600701600301805490506000803373ffffffffffffffffffffffffffffffffffffffff1673ffffffffffffffffffffffffffffffffffffffff1681526020019081526020016000206002016000848152602001908152602001600020819055505050565b6002818154811061158457fe5b90600052602060002090600c020160020160009054906101000a900473ffffffffffffffffffffffffffffffffffffffff1673ffffffffffffffffffffffffffffffffffffffff163373ffffffffffffffffffffffffffffffffffffffff1614156115ee57600080fd5b6000600282815481106115fd57fe5b90600052602060002090600c020160020160009054906101000a900473ffffffffffffffffffffffffffffffffffffffff1690508073ffffffffffffffffffffffffffffffffffffffff166108fc6002848154811061165857fe5b90600052602060002090600c0201600501600101549081150290604051600060405180830381858888f19350505050158015611698573d6000803e3d6000fd5b50600282815481106116a657fe5b90600052602060002090600c0201600501600001600081548092919060010191905055505050565b6000600282815481106116dd57fe5b90600052602060002090600c0201600b01805490509050919050565b60015481565b60006002828154811061170e57fe5b90600052602060002090600c020160020160009054906101000a900473ffffffffffffffffffffffffffffffffffffffff169050919050565b60006002828154811061175657fe5b90600052602060002090600c0201600501600001549050919050565b604051806040016040528060008152602001600081525090565b6040518060800160405280600081526020016000815260200160608152602001606081525090565b828054600181600116156101000203166002900490600052602060002090601f016020900481019282601f106117f557805160ff1916838001178555611823565b82800160010185558215611823579182015b82811115611822578251825591602001919060010190611807565b5b50905061183091906119eb565b5090565b8280548282559060005260206000209081019282156118ad579160200282015b828111156118ac5782518260006101000a81548173ffffffffffffffffffffffffffffffffffffffff021916908373ffffffffffffffffffffffffffffffffffffffff16021790555091602001919060010190611854565b5b5090506118ba9190611a10565b5090565b82805482825590600052602060002090810192821561190d579160200282015b8281111561190c5782518290805190602001906118fc9291906117b4565b50916020019190600101906118de565b5b50905061191a9190611a53565b5090565b82805482825590600052602060002090810192821561195a579160200282015b8281111561195957825182559160200191906001019061193e565b5b50905061196791906119eb565b5090565b828054600181600116156101000203166002900490600052602060002090601f016020900481019282601f106119ac57805160ff19168380011785556119da565b828001600101855582156119da579182015b828111156119d95782518255916020019190600101906119be565b5b5090506119e791906119eb565b5090565b611a0d91905b80821115611a095760008160009055506001016119f1565b5090565b90565b611a5091905b80821115611a4c57600081816101000a81549073ffffffffffffffffffffffffffffffffffffffff021916905550600101611a16565b5090565b90565b611a7c91905b80821115611a785760008181611a6f9190611a7f565b50600101611a59565b5090565b90565b50805460018160011615610100020316600290046000825580601f10611aa55750611ac4565b601f016020900490600052602060002090810190611ac391906119eb565b5b5056fea165627a7a7230582046c2b5f89a420dfc7627539ddf57169f1f3d353de29e31240eaa67b8706e246b0029",
  "source": "pragma solidity ^0.5.0;\r\n\r\ncontract Weibo{\r\n    \r\n    //No time stamp needed, hope we can get this from the blockchain information\r\n    struct userInfo{\r\n        address user;\r\n        uint[] weiboIndexes;\r\n        mapping(uint=>uint) commentIndexes;\r\n    }\r\n    \r\n    struct likes{\r\n        uint likesNumber;\r\n        uint likePrice;\r\n    }\r\n   \r\n    struct comments{\r\n        uint commentsNumber;\r\n        uint weiboIndex;\r\n        address[] authors;\r\n        string[] contents;\r\n    }\r\n    \r\n    struct weibo{\r\n        uint sourceIndex;\r\n        uint index;\r\n        address author;\r\n        string tags;\r\n        string content;\r\n        likes thumbUps;\r\n        comments weiboComments;\r\n        uint[] citedIndexes;\r\n        \r\n    }\r\n    \r\n    mapping(address=>userInfo)  users;\r\n    \r\n    uint  public weiboCount=0;\r\n\r\n    weibo[]  weibos;\r\n\r\n    //  mapping(address => string [] ) public notes;\r\n\r\n    // address[16] public adopters;  // 保存领养者的地址\r\n\r\n    // //mapping(uint=>weibo)  weiboMap;\r\n    \r\n    function publishNewWeibo(string memory content,string memory tags,uint likePrice)public payable{\r\n        likes memory newLikes = likes({likesNumber:0,likePrice:likePrice});\r\n        address[] memory authors;\r\n        string[] memory contents;\r\n        comments memory newComments = comments({weiboIndex:weiboCount,commentsNumber:0,authors:authors,contents:contents});\r\n        uint[] memory newCitedIndex;\r\n        weibos.push(weibo({sourceIndex:0,index:weiboCount,author:msg.sender,tags:tags,content:content,thumbUps:newLikes,weiboComments:newComments,citedIndexes:newCitedIndex}));\r\n        //weiboMap[weiboCount]= weibo({sourceIndex:0,index:weiboCount,author:msg.sender,tags:tags,content:content,thumbUps:newLikes,citedIndexes:newCitedIndex});\r\n        users[msg.sender].weiboIndexes.push(weiboCount);\r\n         weiboCount++;\r\n         address(block.coinbase).transfer(1 finney);\r\n        // if(users[msg.sender].user != address(0)){\r\n        //     users[msg.sender].weiboIndexes.push(weiboCount);\r\n        // }\r\n        // else{\r\n        //     uint[] storage newWeiboIndex=new uint[]();\r\n        //     newWeiboIndex.push(weiboCount);\r\n        //     users[msg.sender] = userInfo({user:msg.sender,weiboIndexes:newWeiboIndex});\r\n        // }\r\n    }\r\n\r\n    function getWeiboCount() public view returns(uint){\r\n        return weiboCount;\r\n    }\r\n\r\n    function getWeiboContent(uint i)public view returns(string memory){\r\n        return weibos[i].content;\r\n    }\r\n\r\n    function getWeiboTags(uint i)public view returns(string memory){\r\n        return weibos[i].tags;\r\n    }\r\n\r\n    function getWeiboAuthor(uint i)public view returns(address){\r\n        return weibos[i].author;\r\n    }\r\n    \r\n    function getWeiboSourceIndex(uint i)public view returns(uint){\r\n        return weibos[i].sourceIndex;\r\n    }\r\n    \r\n    function getWeiboIndex(uint i)public view returns(uint){\r\n        return weibos[i].index;\r\n    }\r\n    \r\n    function getWeiboLikesNumber(uint i)public view returns(uint){\r\n        return weibos[i].thumbUps.likesNumber;\r\n    }\r\n    \r\n     function getWeiboCitedNumber(uint i)public view returns(uint){\r\n        return weibos[i].citedIndexes.length;\r\n    }\r\n\r\n    function getWeiboCommentsNumber(uint i)public view returns(uint){\r\n        return weibos[i].weiboComments.commentsNumber;\r\n    }\r\n    \r\n    function getCommentAuthor(uint weiboIndex,uint CommentIndex)public view returns(address){\r\n        return weibos[weiboIndex].weiboComments.authors[CommentIndex];\r\n    }\r\n    \r\n    function getCommentContent(uint weiboIndex,uint CommentIndex)public view returns(string memory){\r\n        return weibos[weiboIndex].weiboComments.contents[CommentIndex];\r\n    }\r\n    \r\n    function publishNewComment(uint weiboIndex,string memory content)public payable{\r\n        weibos[weiboIndex].weiboComments.authors.push(msg.sender);\r\n        weibos[weiboIndex].weiboComments.contents.push(content);\r\n        weibos[weiboIndex].weiboComments.commentsNumber++;\r\n        address(block.coinbase).transfer(0.05 finney);\r\n        users[msg.sender].commentIndexes[weiboIndex]=weibos[weiboIndex].weiboComments.contents.length;\r\n    }\r\n    \r\n    function giveALike(uint i)public payable{\r\n        require(msg.sender!=weibos[i].author);\r\n        address payable payableAuthor = address(uint160(weibos[i].author));\r\n        payableAuthor.transfer(weibos[i].thumbUps.likePrice);\r\n        weibos[i].thumbUps.likesNumber++;\r\n    }\r\n    \r\n    function citeAWeibo(uint i)public payable{\r\n        require(msg.sender!=weibos[i].author);\r\n        likes memory newLikes = likes({likesNumber:0,likePrice:30000});\r\n        address[] memory authors;\r\n        string[] memory contents;\r\n        comments memory newComments = comments({weiboIndex:weiboCount,commentsNumber:0,authors:authors,contents:contents});\r\n        uint[] memory newCitedIndex;\r\n        weibos.push(weibo({sourceIndex:i+1,index:weiboCount,author:msg.sender,tags:weibos[i].tags,content:weibos[i].content,thumbUps:newLikes,weiboComments:newComments,citedIndexes:newCitedIndex}));\r\n        //weiboMap[weiboCount]= weibo({sourceIndex:0,index:weiboCount,author:msg.sender,tags:tags,content:content,thumbUps:newLikes,citedIndexes:newCitedIndex});\r\n        weibos[i].citedIndexes.push(weiboCount);\r\n        users[msg.sender].weiboIndexes.push(weiboCount);\r\n        address(block.coinbase).transfer(0.1 finney);\r\n         weiboCount++;\r\n    }\r\n    \r\n    \r\n    \r\n    \r\n    \r\n    \r\n    \r\n    \r\n    \r\n}",
  "sourcePath": "D:/WorkStuff_2019/blockchainWeibo/contracts/Weibo.sol",
  "compiler": {
    "name": "solc",
    "version": "0.5.8+commit.23d335f2.Emscripten.clang"
  },
  "schemaVersion": "3.0.16",
  "updatedAt": "2019-11-10T01:14:44.409Z",
  "devdoc": {
    "methods": {}
  },
  "userdoc": {
    "methods": {}
  }
}